11111-11111-11111-11111AIR FILTER    A-011231BP00167831CM 004GM PACIFICA  2002              0112345631SKEVINS MACHINES001312019101016350 NE BARRY  ATTN: JODIE    PO BOX 45321   KANSAS CITY    MO641519999927687 NW PRARIE ATTN: DOCK     PO BOX 45981   KANSAS CITY    MO641519999931407 ENGLEWOOD ATTN: DUKE     SHIPPING DEPT  KANSAS CITY    MO6411799999PO010000100000070000200002020080120200901PO010100100000030000200002020081520200915PO010200100000040000250002020080820200908
02000-56431-67598-43811TRANSMISSION  A-025772BP02891532IN 004FORMUSTANG   2019              0284957332SFORD MOTOR CO  002332019100818121 US 69 HWY PO BOX 64355   ATTN: PARTS    CLAYCOMO       MO064119999922525 SKEETER DRATTN: ASWALU   PO BOX 45611   FAIRBANKS      AK99701999993PO BOX 68139   ATTN: ACCT REC 1235 CHERRY STRCLAYCOMO       MO6411999999PO020100200000030002200002020061520200715PO020203200000040002500002020081420200915PO020303200000020002600002020080120200901
03000-64158-36429-78156AIR SPRING    A-034923BP03501933IN 004GM CORVETTE  2019              0381930533MBOBS CORVETTES 003212019081013201 FAIRFAX   PO BOX 45612   ATTN: ELLIOTT  KANSAS CITY    KS66115999992100 SATURN     PO BOX 34451   ATTN: SHERRY   SPRINGHILL     TN37174999993PO BOX 68497   2378 WAGON ROADATTN: BOB      KANSAS CITY    KS6611599999PO030100300000120000500002020030120200405PO030200300000160000600002020070120200802PO030300300000150000700002020081020200910
04000-56792-46311-48921AXLE          E-045674BP04567834IN 004FORPROBE     1990              0412345634SBEST IN THE BIZ0043320190610112 JAMES ROAD  ATTN: JESSE    PO BOX 64156   HANNIBAL       MO6340199999214 THOMAS DR   ATTN: LEALON   OPEN FIRST     KANSAS CITY    MO641619999934684 BENTON ST ATTN: SUSIE    PERSONAL       FENTON         MO6302699999PO040100400000010000450002020070520200805PO040200400000030000450002020080520200905PO0403004000000400005500020200905
05000-43987-21167-3248 BALL JOINT    A-055675BP0570035 CM 004JAGJAGUAR XF 2018              0531234563MBOB'S USED CARS005212019022414675 ELM LANE  ATTN: BETTY JO RUSH ORDER     YALAPALOOZA    MI480849999926479 WALNUT    ATTN: JILL J.  PARTS ENCLOSED SEATTLE        WA983019999934219 BRIDGE RD ATTN: SCOTT    CASH ENCLOSED  NOWHERE        KS6610299999PO050100500000080000150002020040720200507PO050200500000090000200002020050120200528PO050300500000300000350002020070120200802
06000-32916-36841-78235BATTERY       E-069276BP0670036 AMP004TOYBUZZ MODEL2019              0612345636DINFINITY BYOND 006212019060712380 PLATTE RD ORDER ENCLOSED ATTN: PATTY    ALAMEDA        HI968069999922381 APPLE LANEPO BOX 62451   ATTN: JUNE     ALBANY         VA245009999933942 VENICE ST PO BOX 64157   ATTN: DIANE    ALEX CITY      WA9850199999PO060100600000070000500002020010520200205PO060200600000060000600002020011520200215PO060300600000070000700002020070120200801
07000-46812-39465-64192BENCH SEAT    A-073677BP07567837IN 004BMWBMW 13    2015              0712345637SPASIANO AUTO   007322019090114238 MERRY LANEATTN: JANE     ORDER ENCLOSED ANNISTON       GA310339999929869 BOPEEP DR ATTN: MS PEEP  PLEASE OPEN    ANAHEIM        FL330169999934204 COTTON RD PO BOX 12894   ATTN: DONNITA  ARLINGTON      CO8103899999PO070100700000060002200002020010220200202PO070200700000050002300002020011420200214PO070300700000030002400002020041320200513
08000-42986-46222-65831BRAKE HOSE    A-084568BP08567838IN 003GM ACADIA    1998              0812345638DVAN SUBARU     008122019030513694 OCEAN AVE PO BOX 65116   ATTN: CAPTAIN  ATHENS         MO652519999922682 OLD WHARF PO BOX 78115   ATTN: 1ST MATE ATMORE         AR717079999934923 SEAWALL   PO BOX 13135   ATTN: SARAH    AUBURN         AZ8600099999PO080100800000020000050002020010520200126PO080200800000210000060002020030120200322PO080300800000500000090002020040620200427
09000-56779-46811-64837BRAKE PEDAL   A-093899BP09567839IN 003GM AVALANCHE 1992              0912345639DOAKES KIA      009222019070113301 COTTON RD PO BOX 45921   ATTN: SCOTT    BOCA RATON     FL330109999923302 BLM BLVD  PO BOX 46712   ATTN: DONALD   BOISE          CO805049999933296 PIANO ROADPOX 43879      ATTN: JOANN    BOONE          FL3301599999PO090100900000320000050002020010520200126PO090200900000210000060002020030120200322PO090300900000070000075002020050520200521
10000-56778-46911-39254BRAKE PISTON  A-103770BP10567840IN 003GM CAMARO    2016              1012345640MJACK MILLER    010112019010312193 GILDER AVEPO BOX 43298   ATTN: JILL     BOSTON         MT592159999922198 FARMER ST PO BOX 48912   ATTN: DAVID    BOULDER CITY   VA200409999932201 WAGON ROADPO BOX 48912   ATTN: MILO     BOURNE         WA9850399999PO100101000000070000070002020061520200705PO100201000000100000080002020032420200418PO100301000000110000090002020042520200515
11000-29458-32461-87922BRAKE PUMP    A-113641BP11567841IN 003GM CORVETTE  2012              1112345641MMIDWAY AUTO    011132019030813853 GREEN LANEPO BOX 89112   ATTN: MOLLY    BOWIE          WY990249999923859 LENOX RD  PO BOX 48312   ATTN: JOHNNY   BROCKTON       WA984009999939463 APPLE LANEPO BOX 41297   ATTN: REBECCA  CALDWELL       MT5900199999PO110101100000070000070002020010420200125PO110201100000110000060002020022820200321PO110301100000150000095002020041220200506
12000-65821-49311-46821BRAKE ROLL    A-125872BP12567842IN 003GM CRUZE     2016              1212345642IAUTOBAHN       012132019080118957 VENICE ST PO BOX 46233   ATTN: BONITA   CAPE CORAL     GA310359999922229 TECH AVE  PO BOX 43899   ATTN: PHILLIP  CARBONDALE     FL320529999932235 WATER LANEPO BOX 46125   ATTN: AGAPIOS  CARSON CITY    CA9472299999PO120101200000210000095002020041220200506PO120201200000200000095502020042420200514PO120301200000150000120002020042520200515
13000-67511-38267-56411BRAKE ROTOR   A-133783BP13567843IN 003GM ENCLAVE   2018              1312345643IMC AUTO        013212019030912272 BLUE LANE PO BOX 46591   ATTN: SCOTT    CARTHAGE       MO641199999926686 SEAWALL   PO BOX 46815   ATTN: WENDY    CEDAR RAPIDS   IA520019999932271 GHOST LANEPO BOX 56712   ATTN: CASPER   CENTRALIA      MO6525199999PO130101300000210000495002020011820200201PO130201300000220000600002020021920200305PO130301300000170000850002020031920200405
14000-69215-46321-48955BRAKES        A-143894BP14567844IN 002CHRRAM 1500  1992              1412345644INORTHTOWNE     044112019061517794 BUS AVENUEPO BOX 39457   ATTN: SERENITY CHELSEA        NV891029999928504 POET LANE PO BOX 66489   ATTN: CALEB    CHICKASAW      OK731049999936501 DEAN AVE  PO BOX 65011   ATTN: JAMES    CLANTON        OK7319899999PO140101400000220000130002020011520200129PO140201400000260000140002020020120200214PO140301400000400000180002020070320200717
15000-69215-46321-48955SHOCKS        A-153894BP15567844IN 002CHRRAM 1500  1992              4412345644ISCOTTS CARS    015112019061517794 RED AVENUEPO BOX 39457   ATTN: SERENITY CHELSEA        NV891029999928207 JOEY ROAD PO BOX 29758   ATTN: JONNY    SAW MILL       OK731049999934201 REDROCK LNPO BOX 58195   ATTN: SCOTT    CLAREMORE      OK7319899999PO150101500000220000130002020011520200129PO150201500000260000140002020020120200214PO150301500000400000180002020070320200717
16000-78135-49238-43215BUMPER        A-166896BP16567846IN 002CHRRAM 2500  1996              1612345646SVAN CHEVROLET  046312019070314369 TECH AVE  PO BOX 67912   ATTN: TASHA    CLANTON        RI029139999922985 CENTRAL   PO BOX 12678   ATTN: JOANN    CLEARWATER     FL330139999932247 MAPLE LANEPO BOX 4267    ATTN: CINDY    DELRAY BEACH   FL3405599999PO160101600000070000730002020041320200427PO160201600000050000950002020061420200628PO160301600000080000980002020081020200824
17000-43871-36288-46211CALIPER       A-174977BP17567847IN 002CHRRAM 3500  2001              1712345647DOPEN AUTO      017212019010516875 APPLE LANEPO BOX 12890   ATTN: CHERRYL  CANYON CITY    KS664059999922379 LENOX ROADPO BOX 48321   ATTN: MITCH    DENVER         CO814009999934678 GREEN LANEPO BOX 46812   ATTN: BETH     DES MOINES     IA6812099999PO170101700000140000130002020061420200628PO170201700000120000150002020041320200427PO170301700000140000170002020062520200710
18000-64855-26799-12678CAMSHAFT      A-186788BP18567848IN 002CHRRAM 4500  2003              1812345648DTESLA OF KC    018312019090113941 TECH AVE  PO BOX 55678   ATTN: SEAN     DETROIT        MI497019999924681 CHERRY STRPO BOX 55912   ATTN: TERRY    DIXON          MO653019999934242 PLATTE RD PO BOX 45611   ATTN: ANNE     DOTHAN         MT5913599999PO180101800000070002170002020020120200215PO180201800000050002200002020061420200628PO180301800000040002500002020061820200630
19000-32411-78922-36784CLUTCH DISK   A-196899BP19567849IN 002CHRYPSILON   2008              1912345649MGLAD AUTO      019132019080114682 PURPLE RD PO BOX 45138   ATTN: THOMAS   DUBUQUE        VA243049999924240 COTTON RD PO BOX 12864   ATTN: RHONDA   EAST ORANGE    WA985029999934243 BLUE LANE PO BOX 58711   ATTN: DENISE   ENGLEWOOD      HI9680999999PO190101900000040000500002020020120200214PO190201900000120000550002020041320200427PO190301900000180000600002020071320200727
20000-36812-45977-36842COIL SPRING   A-206840BP20567850IN 002CHRYPSILON   2009              2012345650MDRIVETIME      020212019060119868 GHOST LANEPO BOX 66512   ATTN: ROSS     FLORENCE       WA985099999929869 BOPEEP DR PO BOX 64198   ATTN: KEVIN    FLORISSANT     MO653079999934204 COTTON RD PO BOX 62489   ATTN: PAYTON   FORT MORGAN    GA3103899999PO200102000000180000350002020041320200427PO200202000000150000360002020052020200604PO200302000000190000420002020061420200628
21000-36812-45977-36842DECKLID       A-216791BP21567851IN 002CHRNASSAU    2010              2112345651IBARON BMW      021312019030213689 GILDER AVEPO BOX 45677   ATTN: ROSEMARY FREDERICK      MO641519999923691 LUCY ST   PO BOX 55611   ATTN: LUCY     FULTON         MO652519999933692 WAGON ROADPO BOX 55798   ATTN: JESSE    GLENDALE       CA9472299999PO210102100000050000850002020010520200119PO210202100000030000950002020021520200229PO210302100000020000980002020070120200715
22000-36125-64892-65149DISTRIBUTOR   A-226952BP22567852IN 002CHRCROSSFIRE 2011              2212345652IBEST BUY CAR   022112019010514202 BLUE LANE PO BOX 56124   ATTN: ROBERT   HAGERSTOWN     CT069209999924199 COTTON RD PO BOX 56131   ATTN: KAY      HANNIBAL       MO641199999933693 GREEN LANEPO BOX 78952   ATTN: JAMES    HAINES         SC2980199999PO220102200000100000300002020020120200214PO220202200000150000350002020040520200415PO220302200000230000380002020051620200601
23000-56792-36411-69756ENGINE        A-235893BP23567853IN 002CHRVIPER     2012              2312345653MBOB ALLEN      023132019010214925 WATER LANEPO BOX 55312   ATTN: SUSIE    HOT SPRINGS    AR755029999922686 OCEAN AVE PO BOX 12486   ATTN: RUBY     IRVINE         CA921109999932687 BLUE LANE PO BOX 45135   ATTN: JANE     JASPER         CO8103399999PO230102300000030002300002020021520200229PO230202300000040002500002020040920200423PO230302300000060002800002020072820200814
24000-64287-64219-63782FENDER        A-246774BP24567854IN 001CHRSTRATUS   2013              2412345654DVANTAGE CARS   024132019080413295 GREEN LANEPO BOX 12745   ATTN: BILL     KINGDOM CITY   MO652519999923297 PURPLE RD PO BOX 45135   ATTN: JAKE     LAKE WALES     ND588009999933299 LENOX RD  PO BOX 45135   ATTN: DAVE     LAKELAND       CA9610099999PO240102400000060000800002020010820200115PO240202400000040000850002020040920200416PO240302400000100000920002020070120200707
25000-82645-78234-98513FLYWHEEL      A-253885BP25567855IN 001CHRTOURING   2014              2512345655SJAY WOLFE      025312019051513303 BOPEEP DR PO BOX 12378   ATTN: JOE      LUDLOW         OK731529999922199 MAPLE LANEPO BOX 23451   ATTN: JOE      LYNN           KS675019999932202 COTTON RD PO BOX 65123   ATTN: JIM      MAILBU         CA9472499999PO250102500000060000800002020030520200312PO250202500000080000900002020051820200526PO250302500000140000950002020080320200810
26000-56197-89216-45923FUEL CAP      A-266876BP26567856IN 001CHRSEBRING   2015              2612345656SCARVANA        026332019021414366 SEAWALL   PO BOX 12456   ATTN: RANDY    MARBLEHEAD     ID834099999924367 WATER LANEPO BOX 56771   ATTN: JOYCE    MELBOURNE      MT591329999934368 VENICE ST PO BOX 45138   ATTN: STEVEN   MIAMI          FL3205599999PO260102600000400000050002020031520200323PO260202600000210000075002020051820200526PO260302600000200000150002020071220200719
27000-49527-94851-32672FUEL CELL     A-274567BP27567857CM 001VW VW PASSAT 2016              2712345657DTOMS USED CARS 027132019040114369 TECH AVE  PO BOX 45311   ATTN: ZOE      MIAMI          FL340509999923856 APPLE LANEPO BOX 45831   ATTN: RUTH     MIDLAND        GA310339999936592 TECH AVE  ATTN: ROBERT   CASH ENCLOSED  MILTON         OR9765099999PO270102700000200000450002020051820200526PO270202700000220000480002020070120200709PO270302700000100000520002020081520200823
28000-46782-65297-43281FUEL FILTER   A-284798BP28567858CM 001VW VW TPIAREG2017              2812345658MRICART AUTO    028232019051513844 MERRY LANEPO BOX 64532   ATTN: RUDOLPH  MONROE         UT845079999923842 COTTON RD PO BOX 12789   ATTN: DENNIS   MONTROSE       CA92110999993123 SANTA DRIVEPO BOX N. POLE ATTN SANTA     NEW SMYRNA     FL3301799999PO280102800000500000060002020010820200115PO280202800000200000080002020032720200405PO280302800000500000095002020060720200614
29000-91382-59631-42972FUEL GUAGE    A-296999BP29567859IN 001FOREDGE      2018              2912345659ITAYLOR AUTO    029112019021214682 PURPLE RD PO BOX 45211   ATTN: BYRD     OCEANSIDE      CA921129999924679 BLUE LANE PO BOX 32165   ATTN: ROBIN    ORANGE         CA947259999934679 RED LANE  PO BOX 12378   ATTN: CAROL    PACIFIC GROVE  CA9210899999PO290102900000100000060002020051820200526PO290202900000200000085002020070120200707PO290302900000320000092002020080320200810
30000-91382-59631-42972FUEL INJECTOR A-307560BP30567860CM 001VW VW GOLD   2019              3012345660SCHEAP AUTO     030312019060214239 WAGON ROADPO BOX 45311   ATTN: BATMAN   PALM SPRINGS   CA921119999924240 COTTON RD PO BOX 56177   ATTN: LIZZIE   PEABODY        MT592139999934198 LENOX ROADPO BOX 56134   ATTN: GLENDA   PITTSFIELD     PA1850799999PO300103000000100000760002020010720200114PO300203000000050000960002020041220200419PO300303000000320000980002020061320200620
31000-26785-31758-11111TRANSMISSION  A-311611BP3170061 CM 001VW VW BEETLE 1990              3112345661DRALPH'S VW SHOP031312019061315220 CTY RD 207ATTN: RALPH    PARTS ORDER    FULTON         MO652519999922345 SANTRA TRLATTN: DON KNOTTPLEASE UNPACK  SANTA FE       NM87501999993PO BOX 615061  ATTN: FINANCE  CHECK ENCLOSED FULTON         MO6525199999PO310103100000030008500002020021520200223PO310203100000010009500002020061520200622PO310303100000030009900002020090120200911
32000-45681-29763-22222MOTOR         A-322622BP3270062 IN 002FORMUSTANG   2005              3212345662DJACKSTACK FORD 032212019080314361 NW 62ST STATTN: MR. STACKPERSONAL       SACRAMENTO     CA942309999923809 VROOMAN   ATTN: JULIE    PARTS ENCLOSED NEW YORK       NY10035999993PO BOX 62062   ATTN: MR. STACKCHECK ENCLOSED SACRAMENTO     CA9420399999PO320103200000010004500002020022920200315PO320203200000010005500002020070120200715PO320303200000040006500002020081520200901
33000-93684-29781-33333PISTON        A-333633BP3370063 CM 003PEUPEUG 208  2017              3312345663SJONS PEUGEOTS  033312019061011010 CAPITAL STATTN: JON S.   RUSH ORDER     WAKE FOREST    NC275879999924958 VIOLIN DR ATTN: BECKY SUEDO NOT DROP    BOCA RATON     FL334339999933645 SAYLES RD ATTN: JON S.   CASH ENCLOSED  WAKE FOREST    NC2758799999PO330103300000120001200002020061620200703PO330203300000180001300002020080120200826PO330303300000060001400002020082620200910
                       AIR FILTER    E-34E001BP3407310 CM 4  GM PACIFICA  2002              3402345310SBARTS MACHINES 034312019101016350 NE BARRY  ATTN: JODIE    PO BOX 45321   KANSAS CITY    MO641519999927687 NW JACKSONATTN: BECKY    PO BOX 36451   KANSAS CITY    MO641519999931407 BARRY     ATTN: DAN      SHIPPING       KANSAS CITY    MO6411799999PO340103400000070000200002020080120200901PO340203400000030000200002020081520200915PO340303400000040000250002020080820200908
35000-32000-67598-43811              E-350002BP35891532IN 4  FORMUSTANG   2019              3584957332SKAMS MOTOR CO  035332019100818121 US 95 HWY PO BOX 64311   ATTN: JOE      CLAYCOMO       MO641199999 22525 STANTON DRATTN: SAMMY    PO BOX 22611   FAIRBANKS      AK99701999993PO BOX 74149   ATTN: ACCTS    1235 CHERRY STRCLAYCOMO       MO6411999999PO350103500000030002200002020061520200715PO350203500000040002500002020081420200915PO350303500000020002600002020080120200901
36000-64158-36429-78156AIR SPRING    E-36E923BP36501933IN 4     CORVETTE  2019              3681930533MTOMS CORVETTES 036212019081013201 CHERRY    PO BOX 44412   ATTN: JOHN     KANSAS CITY    KS66115999992100 WOOD       PO BOX 65251   ATTN: CANDY    SPRINGHILL     TN37174999993PO BOX 68497   2378 TRUCK ROADATTN: TOM      KANSAS CITY    KS6611599999PO360103600000120000500002020030120200405PO360203600000160000600002020070120200802PO360303600000150000700002020081020200910
37000-56792-46311-48921AXLE          E-375674BP37567834IN 4  FOR          1990              3712345634SBEST IN TOWN   0373320190610112 JONES ROAD  ATTN: JACK     PO BOX 23156   HANNIBAL       MO6340199999214 LEALON DR   ATTN: THOMAS   OPEN NOW       KANSAS CITY    MO641619999934684 BUCK ST   ATTN: CAROL    PERSONAL       FENTON         MO6302699999PO370103700000010000450002020070520200805PO370203700000030000450002020080520200905PO3703037000000400005500020200905
38000-43987-21167-3248 BALL JOINT    E-385675BP3880035 CM 4  JAGJAGUAR XF                   3831234563MED'S NEW CARS  038212019022414675 NUT LANE  ATTN: WENDY JO RUSH PLEASE    YALAPALOOZA    MI480849999926479 WAGON ST  ATTN: NICKIE   PARTS          SEATTLE        WA983019999934219 RAIN RD   ATTN: DEB      MONEY ENCLOSED NOWHERE        KS6610299999PO380103800000080000150002020040720200507PO380203800000090000200002020050120200528PO380303800000300000350002020070120200802
39000-32916-36841-78235BATTERY       E-399276BP3970036 AMP4  ODDWOODY MDL 2017              3912345636DINFINITY CARS  039212019060712380 BECKETT   ORDER ENCLOSED ATTN: JULIE    DANA           HI968069999922381 PLUM LANE PO BOX 26458   ATTN: BETH     DUNCAN         VA245009999933942 WATER ST  PO BOX 49321   ATTN: JANE     SHILO CITY     WA9850199999PO390103900000070000500002020010520200205PO390203900000060000600002020011520200215PO390303900000070000700002020070120200801
40000-46812-39465-64192BENCH SEAT    E-403677BP40567837IN 4  BMWBMW 13    1975              4012345637SWILSON AUTO    040322019090114238 DINGO LANEATTN: JANE     ORDER ENCLOSED ANNISTON       GA310339999924312 BOPEEP CT ATTN: MARY     PLEASE OPEN    ANAHEIM        FL330169999934204 NYLON RD  PO BOX 34651   ATTN: MARY     JONESTOWN      CO8103899999PO400104000000060002200002020010220200202PO400204000000050002300002020011420200214PO400304000000030002400002020041320200513
41000-42986-46222-65831BRAKE HOSE    E-414568BP41567838IN 6  GM ACADIA    1998              4112345638DJUJU SUBS      041122019030514516 WATER AVE PO BOX 46211   ATTN: CAP      ATHENA         MO641199999924911 OLD RIVER PO BOX 32855   ATTN: MATTHEW  SEAMORE        AR717079999935604 SEA DR    PO BOX 33811   ATTN: CARA     AUBURN         AZ8600099999PO410104100000020000050002020010520200126PO410204100000210000060002020030120200322PO410304100000500000090002020040620200427
42000-56779-46811-64837BRAKE PEDAL   E-423899BP42567839IN 3  GM AVALANCHE 1992                        DKAYS KIA       042222019070114607 BUGGY RD  PO BOX 45921   ATTN: KAY      BOCA CANNON    FL330109999923402 GAP BLVD  PO BOX 56122   ATTN: DEBRA    BECKETT        CO805049999933296 VIOLIN ROAPOX 49735      ATTN: JACKIE   CLAY           FL3301599999PO420104200000320000050002020010520200126PO420204200000210000060002020030120200322PO420304200000070000075002020050520200521
43000-56778-46911-39254BRAKE PISTON  E-433770BP43567840IN 3  GM CAMARO    2016              4312345640XJACK RABBIT    043112019010312193 GIGHAM AVEPO BOX 56132   ATTN: ANNA     BILLINGS       MT592159999924801 PIGGY ST  PO BOX 43468   ATTN: DONNIE   ROCK CITY      VA200409999932201 HORSE ROADPO BOX 64891   ATTN: MOLLY    JASON          WA9850399999PO430104300000070000070002020061520200705PO430204300000100000080002020032420200418PO430304300000110000090002020042520200515
44000-29458-32461-87922BRAKE PUMP    E-443641BP41567841IN 3  GM CORVETTE  2012              4412345641M               044132019030814925 BLUE ROAD PO BOX 36844   ATTN: SUSAN    HENDRIX        WY820019999923951 LANNA RD  PO BOX 56781   ATTN: BIG ED   BILLINGS       WA984009999934582 ORANGE LANPO BOX 68912   ATTN: JAMES    SARASOTA       MT5900199999PO440104400000070000070002020010420200125PO440204400000110000060002020022820200321PO440304400000150000095002020041220200506
45000-65821-49311-46821BRAKE ROLL    E-455872BP45567842IN 3  GM CRUZE     2016              4512345642IAUTO ROAD         132019080114678 ITALY ST  PO BOX 46233   ATTN: BONNIE   CAPE SHELL     GA310359999924814 NEWBY AVE PO BOX 36211   ATTN: DEXTER   JOHNSON        FL320529999934591 OCEAN LANEPO BOX 39258   ATTN: DORETHA  ROBERTA CITY   CA9472299999PO450104500000210000095002020041220200506PO450204500000200000095502020042420200514PO450304500000150000120002020042520200515
46000-67511-38267-56411BRAKE ROTOR   E-463783BP46567843IN 3  GM ENCLAVE   2018              4612345643XAUTOS TOO      046212019030912272 BLUE LANE PO BOX 46591   ATTN: SCOTT    CANTON         MO641199999926686 WALL      PO BOX 43299   ATTN: WENDY    CEDAR HALL     IA520019999934622 BOO ROAD  PO BOX 35297   ATTN: EMMA     GOLDEN         MO6525199999PO460104600000210000495002020011820200201PO460204600000220000600002020021920200305PO460304600000170000850002020031920200405
47000-69215-46321-48955BRAKES        E-473894BP47567844IN 2  CHRRAM 1500  1992              4712345644IDADS TOWNE     047612019061511234 ASKEW     PO BOX 49821   ATTN: FIGS     DUKES          NV891029999922601 VIOLA LN  PO BOX 26781   ATTN: AUSTIN   KISSAME        OK731049999936201 JAMES AVE PO BOX 36501   ATTN: DEEN     CLANTON        OK7319899999PO440104400000220000130002020011520200129PO440204400000260000140002020020120200214PO440304400000400000180002020070320200717
48000-48234-12345-6894 BLINKER FLUID E-48045FBP48326822IN 54 ESCESCORT    1988              4812345645ICHEAPER CARS   048172017012016481 GAP AVE   ATTN: MUELLER  PERSONAL       NEW YORK       NY729809999923681 N. 5RD ST PO BOX 06812   ATTN: DON      KANSAS CITY    MO6415199999345555 HWY 69   ATTN: STORMY   ATTN: ACCTS    PALM BEACH     FL3348099999PO480104800000030000050002020040120200106PO480204800000050000000002020063220200431PO480304800000090000000002021010720201103
49000-78135-49238-43215BUMPER        E-496896BP49567846IN 2  CHRRAM 2500  1996              4912345646SDEVINS LOT     049312022070311384 THOMSON   PO BOX 45611   ATTN: OLIVER   CASPER         RI029139999924831 MAIN      PO BOX 56784   ATTN: TONY     CAPE CORAL     FL330139999932247 GRADY LANEPO BOX 4996    ATTN: DUSTIN   FLAGLER BEACH  FL3405599999PO490104900000070000730002020041320200427PO490204900000050000950002020061420200628PO490304900000080000980002020081020200824
50000-43871-36288-46211CALIPER       E-504977BP50567847IN 2  CHRRAM 3500  2001              5012345647SCLOSED AUTO    050212019010516875 PEACH LANEPO BOX 48362   ATTN: LETA     GEORGE CITY    KS664059999924891 PLATTE RD PO BOX 56133   ATTN: GREG     RIVER          CO814009999934211 PARADISE  PO BOX 36811   ATTN: CATHY    DONOVAN        IA6812099999PO500105000000140000130002020061420200628PO500205000000120000150002020041320200427PO500305000000140000170002020062520200710
51000-64855-26799-12678CAMSHAFT      E-516788BP51567848IN 2  CHRRAM 4500  2003              5112345648DCARS OF KC     051352019090114491 LEAD AVE  PO BOX 56811   ATTN: CAARMEN  BAG CITY       MI497019999929244 BANANA ST PO BOX 46819   ATTN: PENNY    PAULSON        MO653019999936845 NEON ROAD PO BOX 66153   ATTN: ANDY     GOTHAM         MT5913599999PO510105100000070002170002020020120200215PO510205100000050002200002020061420200628PO510305100000040002500002020061820200630
52000-32411-78922-36784CLUTCH DISK   E-526899BP52567849IN 2  CHRYPSILON   2008              5212345649MGLAD AUTO      04913201908011               PO BOX 45138   ATTN: THOMAS   DUBUQUE        VA243049999926544 NYLON RD  PO BOX 36485   ATTN: GARY     EAST APPLE     WA985029999932355 RED AVE   PO BOX 48911   ATTN: DAN      ELVIS CITY     HI9680999999PO520105200000040000500002020020120200214PO520205200000120000550002020041320200427PO520305200000180000600002020071320200727
53000-36812-45977-36842COIL SPRING   E-536840BP53567850IN 2  CHRYPSILON   2009              5312345650MDRIVETIME      053212019060114210 HAUNTED RDPO BOX 72155   ATTN: ALLEN    ALBERTA        WA98509999992               PO BOX 46512   ATTN: RICH     DANVILLE       MO653079999936488 SHERPA RD PO BOX 13544   ATTN: TAYLOR   FORT RAIN      GA3103899999PO530105300000180000350002020041320200427PO530205300000150000360002020052020200604PO530305300000190000420002020061420200628
54100-36812-45977-36845DECKLID       E-546791BP54567851IN 2  CHRNASSAU    2010              5412345651IDARINS BMW     054312019030213305 BUILER RD PO BOX 49211   ATTN: ROSE     DOUGLAS        MO641519999920611 RICKIE ST PO BOX 32911   ATTN: RICK     AUXVASSE       MO65251999993               PO BOX 46844   ATTN: JACK     GLENWOOD       CA9472299999PO540105400000050000850002020010520200119PO540205400000030000950002020021520200229PO540305400000020000980002020070120200715
55000-36125-64892-65149DISTRIBUTOR   E-556952BP55567852IN 2  CHRCROSSFIRE 2011              5512345652IBAD CAR BUY    055112019010559817 RED ROAD  PO BOX 29844   ATTN: AUSTIN   PIGGYTOWN      CT069209999926822 SHERPA RD PO BOX 23488   ATTN: KIM      TEDDY          MO641199999 34955 BLUE LANE PO BOX 98177   ATTN: HONOR    HONESTY        SC2980199999PO550105500000100000300002020020120200214PO550205500000150000350002020040520200415PO550305500000230000380002020051620200601
56000-56792-36411-69756ENGINE        E-565893BP56567853IN 2  CHRVIPER     2012              5312345653MBOB ALLEN      056132019010215892 OCEAN DR  PO BOX 43801   ATTN: DAMON    HOT WATER      AR641179999924682 WATER RD  PO BOX 46811   ATTN: CHOP     BATON          CA921109999932684 RED ROCK  PO BOX 78911   ATTN: GEORGE   BLUES          CO8103399999PO560105600000030002300002020021520200229PO560205600000040002500002020040920200423PO560305600000060002800002020072820200814
57000-64287-64219-63782FENDER        E-576774BP57567854IN 1  CHRSTRATUS   2013              5712345654DDONT BUY HERE  057132019080413892 PITTS RD  PO BOX 49822   ATTN: ROD      MEXICO         MO652519999925581 ORANGE RD PO BOX 45911   ATTN: JULES    WACO           ND588009999936844 ROCK LN   PO BOX 53844   ATTN: DICK     LOVELAND       CA9610099999      05700000060000800002020010820200115      05700000040000850002020040920200416      05700000100000920002020070120200707
58000-82645-78234-98513FLYWHEEL      E-583885BP58567855IN 1  CHRTOURING   2014              5812345655SBOBCAT CARS    058312019051514803 COUGAR DR PO BOX 56812   ATTN: JIM      LAZIE          OK731529999924591 PEACH CT  PO BOX 56812   ATTN: SUE      LINDAL         KS675019999936428 NYLON RD  PO BOX 68811   ATTN: DANA     DIAMOND        CA9472499999PO5801   00000060000800002020030520200312PO5802   00000080000900002020051820200526PO5803   00000140000950002020080320200810
59000-56197-89216-45923FUEL CAP      E-596876BP59567856IN 1  CHRSEBRING   2015              5912345656SCARS N MORE    059332019021415677 WATERS    PO BOX 49322   ATTN: RUBY     CRACKLEHEAD    ID834099999924394 PEACH LANEPO BOX 46819   ATTN: JUDY     MONSTER        MT591329999939841 OCEAN ST  PO BOX 49812   ATTN: PAUL     CANTON         FL3205599999PO59010590000040000005000        20200323PO590205900000210000075002020051820200526PO590305900000200000150002020071220200719
60000-49527-94851-32672FUEL CELL     E-604567BP60567857CM 1  VW VW PASSAT 2016              6012345657DJIMS USED CARS 057132019040116965 LEAD AVE  PO BOX 16855   ATTN: NYLA     FORT HOOD      FL340509999925679 PEACH LANEPO BOX 56711   ATTN: TASHA    DE LAND        GA310339999934985 ROCK ROAD ATTN: ALBERT   OPEN FIRST     MASON          OR9765099999PO6001060       0000450002020051820200526PO600206000000220000480002020070120200709PO600306000000100000520002020081520200823
61000-46782-65297-43281FUEL FILTER   E-614798BP61567858CM 1  VW VW TPIAREG2017              6112345658MMOORE AUTO     061232019051512691 XMAS LANE PO BOX 56799   ATTN: VIXON    MERRY          UT845079999924891 N. 2ND    PO BOX 46811   ATTN: DICK     MONTANA        CA92110999993684 CLAUS DRIVEPO BOX 19822   ATTN: CLAUS    NEW WATSON     FL3301799999PO610106199999990000060002020010820200115PO610206100000200000080002020032720200405PO610306100000500000095002020060720200614
62000-91382-59631-42972FUEL GUAGE    E-626999BP62567859IN 1  FOREDGE      2018              6212345659ICOLES AUTO     062112019021214982 ORANGE RD PO BOX 68921   ATTN: ROBIN    WATERSIDE      CA921129999923678 ROCK ROAD PO BOX 65811   ATTN: WRENN    PEACH CITY     CA947259999934982 BLUE LANE PO BOX 48922   ATTN: LOUISE   ATLANTIC GROVE CA9210899999PO620106200000100000000002020051820200526PO620206200000200000085002020070120200707PO620306200000320000092002020080320200810
63000-91382-59631-42972FUEL INJECTOR E-637560BP63567860CM 1  VW VW GOLD   2019              6312345660SCHEAPER AUTO   063312019060216581 HORSE ROADPO BOX 49255   ATTN: TONTO    CARSON CITY    CA921119999926581 GOTHAM    PO BOX 49281   ATTN: BATMAN   GOTHAM CITY    MT592139999938294 REDROCK   PO BOX 65811   ATTN: CHASE    DAWSON         PA1850799999PO630106300000100000000502020010720200114PO630206300000050000960002020041220200419PO630306300000320000980002020061320200620
64000-26785-31758-11111TRANSMISSION  A-641611BP6470061 CM 1  VW VW BEETLE 1990              6412345661DCARSHOP        064312019061315394 REDROCK   ATTN: BECKY    PARTS ORDER    DANVILLE       MO652519999922346 BLUE RD   ATTN: ANDY     PLEASE UNPACK  MAYBERRY       NM87501999993PO BOX 46288   ATTN: BECKY    CHECK ENCLOSED PARIS          MO6525199999PO640106400000030008500002020023220200308PO640206400000010009500002020061520200622PO640306400000030009900002020090120200911
                       MOTOR         A-652622BP6570062 IN 2     MUSTANG   2005              6512345662DBLACKJACK CARS 065212019080312677 NW 65ST STATTN: MR. JONESPERSONAL       AUXVASSE       CA942309999924890 WAGON RD  ATTN: BERT     NEW PARTS      MANHATTAN      NY10035999993PO BOX 48912   ATTN: MR. BECK FINANCE DEPT   LONG BEACH     CA9420399999PO650106500000010004500002020022920200315PO650206500000010005500002020070120200715PO650306500000040006500002020081520200901
66000-93684-29781-33333PISTON        A-663633BP6670063 CM 3  PEUPEUG 208  2017              6612345663SPEUGEOT NOW    066312019061011035 JILL ST   ATTN: JILL     PARTS          WALES          NC275879999921256 PIANO LN  ATTN: DONNA    FRAGILE        CAPETOWN       FL334339999931389 BLUEROCK  ATTN: DAN      CASH ENCLOSED  DOWNLOOM       NC2758799999      0660000012000120000        20200703      0660000018000130000        20200826      066000006 000140000        20200910
67000-36812-45977-36842DECKLID       A-676791BP67567851IN 2  CHRNASSAU    2010              6712345651IMY BMW         067312019030214581 GILLHAM   PO BOX 15977   ATTN: DONITA   HERRING        MO641519999924985 BLUEROCK  PO BOX 26812   ATTN: ROCKY    BLUENOTE       MO652519999935677 HORSE ROADPO BOX 49288   ATTN: ALEXIS   WOODGLEN       CA9472299999PO670106700000050000850002020011920200105PO670206700000030000950002020021520200229PO670367 00000020000980002020070120200715
68000-36125-64892-65149DISTRIBUTOR   A-686952BP68567852IN 2  CHRCROSSFIRE 2011              6812345652I               06811201901051               PO BOX 46812   ATTN: SCOTT    JONESTOWN      CN069209999925804 ORANGE LN PO BOX 59365   ATTN: TINA     MEXICO         MO657029999934826 BLUE COURTPO BOX 78952   ATTN: GEORGE   HERMAN         SC2980199999      06800000100000300002020020120200214PO680206800000150000350002020040520200415PO680306800000230000380002020051620200601
69000-56792-36411-69756ENGINE        A-6989 3BP69567853IN 2     VIPER     2012              6912345653M               069132019010214271 OCEAN LANEPO BOX 38491   ATTN: CINDY    HOT WATER      AR          28625 WATER LANEPO BOX 49355   ATTN: JEAN     JOPLIN         CA921109999938610 REDROCK   PO BOX 49355   ATTN: JADEN    SHILO          CO8103399999PO69010530000003         2020021520200229PO690205300000040002500002020040920200423PO690305300000060002800002020072820200814
70000-64287-64219-63782FENDER        A-706774BP70567854IN 1  CHR                            7012345654DVANTAGE CARS   054132019080415687 PEACH LANEPO BOX 15942   ATTN: COLE     FULTON         MO652519999925597 PEACH RD  PO BOX 49235   ATTN: LOIS     WALESTOWN      ND588009999935291 ROBIN LN  PO BOX 68135   ATTN: DARIN    ORANGE CTY     CA9610099999      0700000006000080000        20200115PO700207000000040000850002020040920200416PO700307000000100000920002020070120200707